:020000020000FC
:040000000C94140048
:100024000C9455000FE90093600005E20093610011
:100034000DE00093620009E90093630009E4009372
:10004400640001E40093650004E00EBF0FE50DBFFA
:100054000FEF01BB07BB02E003BF01E008BF09BF0C
:100064000EEF02BF40E878945FE95093600011D02E
:1000740055E2509360000DD05DE05093600009D0CC
:1000840059E95093600005D059E45093600001D0C1
:10009400EBCF1FEF2FEF3AE01A95F1F72A95E1F72E
:1000A4003A95D1F70895F8944695423041F042BB11
:1000B4000D910C9108BB00E002BF7894189540E8BC
:0C00C40042BBB0E0A0E60C9108BBF5CFF9
:00000001FF
